:100000000C942A001895000018950000189500001F
:10001000189500001895000018950000189500002C
:10002000189500001895000018950000189500001C
:10003000189500001895000018950000189500000C
:1000400018950000189500001895000018950000FC
:10005000189500008FE58DBFC0E4E8E34E2E88E0E0
:100060008EBFD8E0F8E05F2EEEEFF7E0A0E6B0E05C
:1000700088278D933197E9F70E94DC00662483E09E
:1000800086B980EC87B9379AE4EAF0E080E40E9410
:100090002A0158E0C895802D0E94240131965A9576
:1000A000C9F704C020040A04202020208CE00E940C
:1000B0002A010E94D10080EC806C87B90E9449021D
:1000C000A2E6B0E08D939C9381EC806C87B90E948E
:1000D0004902A0E6B0E08D939C93E0E6F0E0D19079
:1000E000E080FF2400270E9480020E94B1022F932B
:1000F0003F934F935F93E2E6F0E0D190E080FF24DE
:1001000000270E9480025F914F913F912F910E94A2
:100110002303EDE0F0E0A4E6B0E00E948D03E6E208
:10012000F7E00E948403E4E6F0E00E945C020E9493
:10013000CC02EDE0F0E0A4E6B0E00E948D030E9466
:10014000CD00EAE2F7E00E94C600A0E2B8E0E4E6F3
:10015000F0E00E945C020E9466010E94BE00E0E3A3
:10016000F7E00E94C60080E00E942401E4E3F7E08B
:100170000E94C6000C945B00F894FFCFA0E2B8E0A8
:100180008D91882311F060D0FBCF08950E948003E9
:10019000802D11F059D0FACF089582E05BD009D0BC
:1001A00005C081E057D005D080E854C080E852D027
:1001B000089583E099277BC08AEF90E00E94570161
:1001C000A59AA49AA39AA29AA19AA09AA89885E01F
:1001D00090E00E945701A998AD98AC98AB9AAA9A62
:1001E000A99AEF93FF93E5E1F0E00E944B01FF91A4
:1001F000EF91A99859D0A99AEF93FF93E5E1F0E028
:100200000E944B01FF91EF91A9984ED0A99AEF93CC
:10021000FF93E5E1F0E00E944B01FF91EF91A99877
:1002200043D0AA98A99AEF93FF93E5E1F0E00E94EA
:100230004B01FF91EF91A99837D088E20BD08EE067
:1002400009D086E007D00895A89A829505D004D0F9
:100250002BD00895A898F9CF859510F4AA9A01C0DB
:10026000AA98859510F4AB9A01C0AB98859510F4C7
:10027000AC9A01C0AC98859510F4AD9A01C0AD98C8
:10028000A99AEF93FF93E5E1F0E00E944B01FF9103
:10029000EF91A99808953197F1F70895689462F85D
:1002A0000895E89462F8089581E090E000C0EF932B
:1002B000FF93EE27E82BE92B31F0EAEFF0E03197DE
:1002C000F1F70197D1F7FF91EF9108958DE207FDC6
:1002D0008D938F2D881F802F881F8F57082F68942C
:1002E000F7F8802F87FF15C080958395082F80E34E
:1002F0008D938EE28D93802F815228F080E38D9331
:1003000099279C93089544270A95802F09F196D048
:100310001FC0805230F09EE49D9381E48D939D93A5
:10032000EFCF4427DF92EF92FF920F938FE1801B74
:1003300011F0082F83D089D09EE29D930F91FF90FA
:10034000EF90DF9044270395003209F4D7CF2BD0EC
:100350003F93ECEDF3E038E12F2D1E2D0D2DFF2402
:10036000EE24DD244427000F111F221FA8F42F9232
:100370003F920E948003102C0E948003202C0E9438
:100380008003302C0E9480033197410DD21CE31C66
:10039000F01C3F902F9001C0339631963A9519F793
:1003A0003F9107D0AFCFDD0CEE1CFF1C0A95D9F7AB
:1003B0000895002719E058D08F93802B11F00395F2
:1003C00001C08F911A95B9F7802F882309F496CF31
:1003D0008F91805D8D930A95D9F792CF0065CD1DE1
:1003E00080B2E60E40597307A0ACB90350D6DC01C9
:1003F000286BEE0094357700CA9A3B0065CD1D004E
:10040000B2E60E0059730700ACB90300D6DC010058
:100410006BEE0000357700009A3B0000CD1D000018
:10042000E60E000073070000B9030000DC010000C5
:10043000EE000000770000003B000000F694E79417
:10044000D79447950A95D1F7089500270DD08F933B
:1004500003958F2D8E298D29842BC1F78F91805D77
:100460008D930A95D9F74CCF1F930F93002710E275
:10047000440FDD1CEE1CFF1C001F802F9AE0890B2F
:1004800010F0082F43951A9599F7802F0F911F911F
:100490000895369A3699FECF369A3699FECF84B1B2
:1004A00095B10895D094E094F09491E0D90E9927F5
:1004B000E91EF91E10950895D190E190F1900191F7
:1004C000089521913191419151910895102F90E813
:1004D000FF0C001F0927990FF7941078652F90E8FB
:1004E000440F551F5927990F479560780038089594
:1004F000FF0C90E89027110F9795F794092F089516
:10050000102FBD2CDE2CEF2CF02E11234AF4B094CA
:10051000D094E094F0949FEFB91AD90AE90AF90A45
:100520000EE1FF2039F4FE2CED2CDB2CBB2408500F
:10053000C2F766C032F00A95BB0CDD1CEE1CFF1C36
:10054000F9CF01D0D5CFB7FE089590E8B91611F4D0
:10055000D0FE08959FEFD91AE90AF90A09F4039524
:100560000895502F2D2D3E2D4F2D612F08952DECE8
:100570003CEC4CEC5DE366270FC09EDFF2DFDD2430
:10058000EE2490E8F92E0FE307C09BDF05C0222779
:10059000332740E251E46627552351F1002381F1CE
:1005A00095DF71F11627005850580894050B18F480
:1005B00007FD03C025C007FD23C046953795279545
:1005C000F694E794D79422D0FF202AF0DD0CEE1C9D
:1005D000FF1C015073F09D2D969548F0DD203AF4F4
:1005E000EE202AF491E0D90E9927E91EF91E80CF5A
:1005F00007C09FE7092FF92A9FEFD92EE92E08950A
:10060000DD24EE24FF240027112708959F929924CA
:10061000AA24BB2488E1D216E306F40628F0D21AF5
:10062000E30AF40A089401C08894991CAA1CBB1C14
:10063000DD0CEE1CFF1C8A9571F7D92CEA2CFB2CE3
:100640009F9008953EDF42DF503829F090E86927F7
:100650000CC00AF045D04CCF5FE322273327442754
:1006600001C02FDF33DF5038B1F3003899F3902FFA
:10067000951B8BF312F434D0FACF983118F022275F
:1006800033274427983028F0232F342F44279850BD
:10069000F9CF992329F04695379527959A95D9F75B
:1006A000912F962742F014D0B0F6F794E794D794A0
:1006B0000F5F8BF69ECF10D051F008F4F3DEFF20D1
:1006C00052F2DD0CEE1CFF1C0150CBF792CF98CFFD
:1006D000D20EE31EF41E0895D21AE30AF40A089516
:1006E000DF92EF92FF920F931F93D22EE32EF42E00
:1006F000052F162F6F915F914F913F912F91089584
:10070000C895319600200895FBDF202DF9DF302DAC
:10071000F7DF402DF5DF502D089594E081918D9302
:100720009A95E1F708950000804054656D703A0095
:0E073000206300002020202020202020200018
:00000001FF
